:100000000C945D000C9485000C9485000C94850084
:100010000C9485000C9485000C9485000C9485004C
:100020000C9485000C9485000C9485000C9485003C
:100030000C9485000C9485000C9485000C9485002C
:100040000C94CB020C9485000C9485000C948500D4
:100050000C9485000C9485000C9485000C9485000C
:100060000C9485000C94850000000008000201003B
:100070000003040700000000000000000000000072
:10008000250028002B0000000000240027002A0083
:10009000040404040404040402020202020203032E
:1000A0000303030301020408102040800102040836
:1000B0001020010204081020250411241FBECFEFD8
:1000C000D8E0DEBFCDBF11E0A0E0B1E0E6E9F8E0A6
:1000D00002C005900D92A032B107D9F721E0A0E24D
:1000E000B1E001C01D92A134B207E1F710E0CDE507
:1000F000D0E004C02197FE010E944304CC35D10713
:10010000C9F70E9415030C9449040C94000090E078
:10011000FC01EC55FF4F249180579F4FFC018491C7
:10012000882399F090E0880F991FFC01EA57FF4F50
:10013000A591B491FC01E458FF4F859194918FB73C
:10014000F894EC91E22BEC938FBF0895AF92BF929D
:10015000CF92DF92EF92FF920F931F93CF93DF9393
:100160006C017B018B01040F151FEB015E01AE18C2
:10017000BF08C017D10759F06991D601ED91FC91E4
:100180000190F081E02DC6010995892B79F7C50111
:10019000DF91CF911F910F91FF90EF90DF90CF9063
:1001A000BF90AF90089590E0FC01E859FF4F249173
:1001B000FC01EC55FF4F3491FC01E057FF4FE491F7
:1001C000EE23C9F0222339F0233001F1A8F42130C5
:1001D00019F1223029F1F0E0EE0FFF1FE458FF4F34
:1001E000A591B4918FB7F894EC91611126C0309528
:1001F0003E233C938FBF08952730A9F02830C9F0E3
:10020000243049F7809180008F7D03C08091800069
:100210008F7780938000DFCF84B58F7784BDDBCF6D
:1002200084B58F7DFBCF8091B0008F778093B00035
:10023000D2CF8091B0008F7DF9CF3E2BDACF3FB780
:10024000F8948091250190912601A0912701B09109
:10025000280126B5A89B05C02F3F19F00196A11DC6
:10026000B11D3FBFBA2FA92F982F8827BC01CD0100
:10027000620F711D811D911D42E0660F771F881F5F
:10028000991F4A95D1F708958F929F92AF92BF928E
:10029000CF92DF92EF92FF924B015C010E941F010F
:1002A0006B017C010E941F016C197D098E099F0959
:1002B000683E734081059105A8F321E0821A9108F8
:1002C000A108B10888EEC80E83E0D81EE11CF11C1D
:1002D00081149104A104B10429F7FF90EF90DF90FD
:1002E000CF90BF90AF909F908F900895089590E029
:1002F00080E00895FC0101900020E9F73197AF01FB
:10030000481B590BBC0189E291E00C94A600CF93E5
:10031000DF93EC0160E08E810E94D30061E08E816A
:100320000E94D30060E08E810E94D3008BE891E0B0
:100330000197F1F7DF91CF910895CF92DF92EF927D
:10034000FF920F931F93CF93DF936C017C0187E0A3
:10035000E80EF11CD0E0C0E0062F10E0B8010C2E32
:1003600002C0759567950A94E2F76170F701819173
:100370007F010E94D3002196C430D10579F7C601D0
:10038000DF91CF911F910F91FF90EF90DF90CF9071
:100390000C948701CF92DF92EF92FF920F931F93FD
:1003A000CF93DF93EC01F62E642F8C810E94D30053
:1003B0008D818F3F19F060E00E94D3000F2D10E077
:1003C0008F8584FF25C06E0187E0C80ED11CF12CFB
:1003D000E12CB8010E2C02C0759567950A94E2F7DE
:1003E0006170F60181916F010E94D300FFEFEF1A57
:1003F000FF0A88E0E816F10461F7CE01DF91CF91A2
:100400001F910F91FF90EF90DF90CF900C94870198
:10041000B80184E0759567958A95E1F7CE010E9451
:100420009D016F2DCE01DF91CF911F910F91FF9014
:10043000EF90DF90CF900C949D0140E0682F89E20F
:1004400091E00C94CA01CF93DF93823029F490910C
:10045000380198609093380180933C0110923D01DF
:1004600080E480933E0180E180933F0180E58093AA
:10047000400180912D010E94870080912E018F3FC5
:1004800011F00E94870080912F010E948700C9E22D
:10049000D1E09E01295231408091380184FD0AC08B
:1004A00084E090E02196281739073CF48E810E9461
:1004B0008700EFCF88E090E0F5CF8BE39DE00197D8
:1004C000F1F760E080912D010E94D30060E08091FF
:1004D0002F010E94D30080912E018F3F19F060E020
:1004E0000E94D3008091380184FD39C063E089E225
:1004F00091E00E949D01CBE4D6E4CE010197F1F793
:1005000063E089E291E00E949D012197F1F763E0A9
:1005100089E291E00E949D0183E592E00197F1F765
:1005200062E089E291E00E949D0180913801806241
:100530000E941D0284E0809339018CE00E941D021C
:1005400081E00E941D028BE39FE10197F1F782E0B9
:1005500080933A0186E0DF91CF910C941D02806276
:100560000E941D028BE496E40197F1F78091380117
:1005700080620E941D0283E592E00197F1F780916D
:10058000380180620E941D02D0CF41E00E94CA0162
:1005900081E090E008951F920F920FB60F92112400
:1005A0002F933F938F939F93AF93BF93809121019C
:1005B00090912201A0912301B0912401309120015A
:1005C00023E0230F2D3758F50196A11DB11D20936F
:1005D00020018093210190932201A0932301B093E5
:1005E00024018091250190912601A0912701B091CD
:1005F00028010196A11DB11D80932501909326012C
:10060000A0932701B0932801BF91AF919F918F9143
:100610003F912F910F900FBE0F901F90189526E8D5
:10062000230F0296A11DB11DD2CF789484B58260AC
:1006300084BD84B5816084BD85B5826085BD85B586
:10064000816085BD80916E00816080936E00109204
:10065000810080918100826080938100809181007F
:100660008160809381008091800081608093800010
:100670008091B10084608093B1008091B00081606E
:100680008093B00080917A00846080937A0080919A
:100690007A00826080937A0080917A0081608093F2
:1006A0007A0080917A00806880937A001092C1006D
:1006B00082E00E942302CBE3DFE100E010E081E072
:1006C0000E941D02CE010197F1F7E1E080913C010B
:1006D0008111E0E0E195F0E0E75DFE4F84898068FC
:1006E0000E941D028CE091E00E947A0164EF71E0AB
:1006F00080E090E00E9444018EE091E00E947A0147
:1007000064EF71E080E090E00E94440180E191E0BC
:100710000E947A0164EF71E080E090E00E94440161
:1007200082E191E00E947A0164EF71E080E090E064
:100730000E94440184E191E00E947A0164EF71E03B
:1007400080E090E00E94440186E191E00E947A01FD
:1007500064EF71E080E090E00E9444018EE091E05F
:100760000E947A0164EF71E080E090E00E94440111
:1007700088E191E00E947A0164EF71E080E090E00E
:100780000E94440184E191E00E947A0164EF71E0EB
:1007900080E090E00E9444018AE191E00E947A01A9
:1007A00064EF71E080E090E00E9444018CE191E010
:1007B0000E947A0164EF71E080E090E00E944401C1
:1007C0008EE191E00E947A0164EF71E080E090E0B8
:1007D0000E94440193E0E92EF12C809139018B7F36
:1007E0008093390188600E941D026CE271E080E014
:1007F00090E00E94440180913901982F9460909379
:1008000039018C600E941D026CE271E080E090E092
:100810000E94440181E0E81AF108F9F680E1E82E2F
:10082000F12C8CE10E941D026AEF70E080E090E004
:100830000E94440181E0E81AF10899F701151105B9
:1008400009F43DCF0E9400003ACFE9E2F1E01382C3
:10085000128284E091E0918380838CE084838FEF27
:1008600085838BE0868385E0878384E0808783E0CF
:10087000818782E0828713861486158616861786FE
:1008800081E00C942302EE0FFF1F0590F491E02D00
:060890000994F894FFCF6B
:1008960000000000C502A60077017601570065003A
:1008A6006C0063006F006D00540056004B0055004D
:00000001FF
